:100000000C9456000C9460000C9460000C946000FA
:100010000C9460000C9460000C9460000C946000E0
:100020000C9460000C9460000C9460000C946000D0
:100030000C9460000C9460000C9460000C946000C0
:100040000C9460000C9460000C9460000C946000B0
:100050000C9460000C9460000C9460000C946000A0
:100060000C9460000C9460000C9460000C94600090
:100070000C9460000C9460000C9460000C94600080
:100080000C9460000C9460000C9460000C94600070
:100090000C9460000C9460000C9460000C94600060
:1000A0000C9460000C9460000C94600011241FBE3E
:1000B000CFEFDAE0DEBFCDBF0E9462000C94860075
:1000C0000C94000080E88093610081E080936100DF
:1000D00010BA84E084B915B864E058E04CE028EC2C
:1000E00030E0199965B9489955B9499945B91F99A9
:1000F00015B8189BF6CF85B1809585B988E893E14E
:10010000F9013197F1F70197D9F7EBCFF894FFCFC9
:00000001FF
